:020000040800F2
:1000000000000320BD0400080D0500080D050008D0
:100010000D0500080D0500080D0500080000000092
:100020000000000000000000000000000D050008B6
:100030000D050008000000000D0500080D05000872
:100040000D0500080D0500080D0500080D05000848
:100050000D0500080D0500080D0500080D05000838
:100060000D0500080D0500080D0500080D05000828
:100070000D0500080D0500080D0500080D05000818
:100080000D0500080D050008910400080D05000885
:100090000D0500080D0500080D0500080D050008F8
:1000A0000D0500080D0500080D0500080D050008E8
:1000B0000D0500080D0500080D0500080D050008D8
:1000C0000D0500080D0500080D0500080D050008C8
:1000D0000D0500080D0500080D0500080D050008B8
:1000E0000D0500080D0500080D0500080D050008A8
:1000F0000D0500080D0500080D0500080D05000898
:100100000D0500080D0500080D0500080D05000887
:100110000D0500080D0500080D0500080D05000877
:100120000D0500080D0500080D0500080D05000867
:100130000D0500080D0500080D0500080D05000857
:100140000D0500080D0500080D0500080D05000847
:100150000D0500080D0500080D0500080D05000837
:100160000D0500080D0500080D0500080D05000827
:100170000D0500080D0500080D0500080000000031
:100180000D0500080D0500080D0500080D05000807
:100190000D0500080D0500080D0500080D050008F7
:0C01A0000D0500080D0500080D05000805
:1001AC000348044B834202D0034B03B118477047FA
:1001BC000000002000000020000000000548064B55
:1001CC001B1AD90F01EBA301491002D0034B03B149
:1001DC0018477047000000200000002000000000BD
:1001EC0010B5064C237843B9FFF7DAFF044B13B173
:1001FC000448AFF300800123237010BD00000020E1
:10020C00000000005805000808B5054B1BB1054956
:10021C000548AFF30080BDE80840FFF7CFBF00BF33
:10022C00000000000400002058050008034AD2F822
:10023C00883043F47003C2F88830704700ED00E05A
:10024C0040B1064B93FBF0F39BB2054AD3625B08BB
:10025C0093637047024B00229A63704740420F0031
:10026C000004004008B500F057F800F0BDF8254A2E
:10027C00936843F08043936017E040F6C4129342B6
:10028C0005D9214A118840F6C31291422FD940F664
:10029C00C312934205D81C4B1A8840F6C4139A42D9
:1002AC002AD84FF47A60FFF7CBFF092000F07CF8D6
:1002BC00164C2080032000F077F8134B1880042094
:1002CC0000F072F8124B18808008124B5863238888
:1002DC0040F6C4129342D0D90B4A118840F6C4128E
:1002EC009142CAD94FF47A70FFF7AAFFDDE74FF4B9
:1002FC00FA60FFF7A5FFD8E740F6B830FFF7A0FF8C
:10030C00D3E700BF002001401E0000202000002089
:10031C001C00002000040040204B1A6B42F013021A
:10032C001A635A6C42F480725A64A3F550531A68DB
:10033C0042F00C021A60DA6822F00C02DA60A3F5C3
:10034C0080631A6842F0C0021A60DA6822F0C002B8
:10035C00DA601A6842F440721A60DA6822F4407269
:10036C00DA600F4A936823F0010393600D494B68E0
:10037C0043F480334B60D36A23F47003D362136964
:10038C0023F0605323F4FC4343F0005343F49043B5
:10039C001361936843F00103936070470038024087
:1003AC0000200140002301400E4A536B23F01F0331
:1003BC0003435363936843F080439360094B1B687A
:1003CC0013F0020FFAD0074BDA6C9A6842F08042B5
:1003DC009A60044B1B6813F0020FFAD0014BD86CD7
:1003EC0080B2704700200140254B1A6B42F002028C
:1003FC001A631A6C42F002021A64A3F550531A687D
:10040C0022F470621A601A6842F420621A601A6A46
:10041C0022F470221A621A6A42F400321A621A6AC0
:10042C0022F470021A621A6A42F400121A62A3F5DC
:10043C00003359229A624FF47A72DA629A6922F086
:10044C0070029A619A6942F060029A619A6942F06C
:10045C0008029A619A6922F4E0429A619A6942F41C
:10046C00C0429A619A6942F400629A611A6A42F037
:10047C0011021A621A6842F081021A60704700BFBA
:10048C0000380240074B01221A80074B9A6842F051
:10049C0080429A60D96C054A11801A6822F00202D7
:1004AC001A60704722000020002001402400002028
:1004BC00DFF834D00D480E490E4A002302E0D45820
:1004CC00C4500433C4188C42F9D30B4A0B4C002390
:1004DC0001E013600432A242FBD3FFF7A7FE00F049
:1004EC0011F8FFF7BFFE704700000320000000204A
:1004FC0000000020780500080000002028000020E3
:10050C00FEE7000070B50D4B0D4D5B1B9C100026DB
:10051C00A64209D100F01AF80A4D0B4B5B1B9C103C
:10052C000026A64205D170BD55F8043B984701360C
:10053C00EEE755F8043B98470136F2E770050008E2
:10054C00700500087005000874050008F8B500BFB8
:10055C00F8BC08BC9E467047F8B500BFF8BC08BC98
:04056C009E467047F0
:040570001502000868
:04057400ED0100088D
:04000005080004BD2E
:00000001FF
